:020000040000FA
:10000000612883161C141A0883169B0A5C280301B6
:1000100083169A001C1555309D00AA309D009C1433
:100020009C1810281C119B0A5C288316F83881053F
:100030000F39810463000F3081045C28A301A20002
:10004000FF30A207031CA307031C5C280330A10098
:10005000E3302C202028A101F43EA000A109FE30AD
:10006000031C3528A00703183228A0076400A10F3D
:100070003228000020183C2820183E2808000038AC
:10008000031DFF300405031DFF305C281030A8005D
:10009000A101A001A70CA60C031C54282208A0074C
:1000A00023080318230FA107A10CA00CA50CA40C76
:1000B000A80B4A2824085C288313031383126400C6
:1000C0000800831678308F0083120730990083165A
:1000D00091012330920083120F309300043092007C
:1000E00095018316073081000730850007309500A1
:1000F000960105158701831285018701C6019622A5
:10010000D22264000519A0280130D30064006530B4
:1001100053020318922864000519A1280A301E20F2
:10012000D30F862807148316071083120330A30009
:10013000E8301F200710831607108312C529A12855
:10014000A128D2014C08BD00DB220714831607103A
:10015000C83083121E200710831607108312033045
:10016000A30020301F20D22264004C08013C031D54
:10017000D928CA014308043C031CCD28C120C9006A
:10018000CD2800308A004308C83E03188A0A82003E
:10019000013405340A34193432344008BD005108A2
:1001A000A600A7016430A200A3014620CD001729B4
:1001B000172964004C08023C031DEE280130CA00D8
:1001C0004208C9003F08BD005008A600A7016430DE
:1001D000A200A3014620CD001729172964004C086E
:1001E000033C031D03290330CA000530C9003E0843
:1001F000BD004E08A600A7016430A200A30146205E
:10020000CD001729172964004C08043C031D16294A
:100210000330CA000530C9004F08A600A7016430AA
:10022000A200A3014620CD00772917291D2BD22239
:10023000DB2264004D08003C031D59290301051D04
:10024000FF30B8004608003C031DFF30FF3ABA00FB
:10025000380884003A083F20BA00BB0064003A081E
:100260003B0403193E29640001303D02031C3D2973
:100270000130C600BD0336233E291D2B030105199D
:10028000FF30B8004608013C031DFF30FF3ABA00BA
:10029000380884003A083F20BA00BB0064003A08DE
:1002A0003B0403195529C6011729033015201929C4
:1002B0007729640005197429640001303D02031C8C
:1002C00073290130D300640053084D02031C6F29C9
:1002D0006400051919290A301E20D30F6329BD03B4
:1002E0003623172974291D2B033015201929640082
:1002F0004D08003C031DAF290301051DFF30B80068
:100300004608003C031DFF30FF3ABA00380884005D
:100310003A083F20BA00BB0064003A083B040319C6
:1003200094290130C600362303010519FF30B800B7
:100330004608013C031DFF30FF3ABA00380884002C
:100340003A083F20BA00BB0064003A083B04031996
:10035000AB29C6017729033015207729C529640008
:100360000519C2290130D300640053084D02031C53
:10037000C0296400051977290A301E20D30FB4293B
:10038000362377290330152077290715831607119F
:1003900083120130D200BC014C08BD000130CB00FB
:1003A0000430C8000130C70056223D08CC004C087C
:1003B000BC000530CB005F30C8000530C7006400CA
:1003C0004C08013C031DE7294008BD00FD296400DD
:1003D0004C08023C031DEF293F08BD00FD296400C5
:1003E0004C08033C031DF7293E08BD00FD296400AD
:1003F0004C08043C031DFD29FE29562203304C07FE
:10040000BC00CB010530C8000130C70064004C08B7
:10041000013C031D0E2A5108BD00252A64004C082A
:10042000023C031D162A5008BD00252A64004C0812
:10043000033C031D1E2A4E08BD00252A64004C08FB
:10044000043C031D252A4F08BD00562207304C07E7
:10045000BC0064004C08013C031D362A4308BD0063
:10046000CB010430C8000130C7004F2A64004C089B
:10047000023C031D442A4208BD001E30CB005A3006
:10048000C8001E30C7004F2A64004C08043C031902
:100490004E2A64004C08033C031D4F2A502A562262
:1004A000D22287148316871083121D2BD222DB22BF
:1004B000C8301E2064000519932A0130D30064005F
:1004C000653053020318762A6400051D722A640001
:1004D00048083D02031C6F2A4B08BD00712A4708DB
:1004E000BD07562A0A301E20D30F5F2A3C08831608
:1004F0009B0083120120C50064003D0845020319DA
:10050000872A3C0883169B0083123D0808200714A5
:1005100083160710C83083121E2007108316071099
:1005200083120800962A033015205A2A83169B014D
:1005300083120120CC00831601309B00831201201E
:10054000C000831602309B0083120120BF00831677
:1005500003309B0083120120BE00831604309B00F1
:1005600083120120D100831605309B0083120120E5
:10057000D000831606309B0083120120CE00831624
:1005800007309B0083120120CF00831608309B00A8
:1005900083120120C300831609309B0083120120BF
:1005A000C200080005168316051283120512831671
:1005B000051283120800D3015208013C031DFF30CD
:1005C000FF3AB8003C08083C031DFF30FF3ABA0070
:1005D000380884003A083F20BA00BB0064003A089B
:1005E0003B040319092B3D08043C031C062BFA228B
:1005F000D500062B03308A003D08013E03188A0A05
:100600008200013405340A34193432345508D400D8
:100610000B2B3D08D4000130D30064005308540272
:10062000031C1C2B851683168512831285128316D4
:1006300085128312D30F0D2B08000130D300640004
:10064000043053020318342B071483160710831247
:100650000130A3002C301F200710831607106430D0
:1006600083121E20D30F1F2B6400342B0714831614
:100670000710643083121E200710831607108312A0
:100680000C3095000930A10060302C20950180309D
:100690004A04C40052234908C4005223E830C4006D
:1006A000522308000130C1006400093041020318E0
:1006B000732B0230A10058302C206400C41B692B1E
:1006C0000C3095000230A10058302C209501C40D4B
:1006D000712B0C3095000430A100B0302C20950116
:0C06E000C40DC10F542B08006300742BE4
:02400E00FC3F75
:00000001FF
